S015000061746D656761313238614465762E7372656385
S113000033C2000039C2000037C2000035C200000C
S113001033C2000031C200002FC200002DC2000014
S11300202BC2000029C2000027C2000025C2000024
S113003023C2000021C200001FC200001DC2000034
S11300401BC2000019C2000017C2000015C2000044
S113005013C2000011C200000FC200000DC2000054
S11300600BC2000009C2000080C0C0C080000000B4
S1130070000000000000000000000000000000E09C
S1130080000000000000000000000000000000006C
S1130090000000000000000000000000000000005C
S11300A0008080808080808080808080804040408C
S11300B040404040404040404040402020202020DC
S11300C0202020202000000000000000000000008C
S11300D0000000000000000000000000000000001C
S11300E00000000000000000FFFFFFFFFFFFFCF81E
S11300F0E0C000000000000000000000000000015B
S113010001020202020202020202020202020202CC
S113011002020202020201010101010101010101C5
S113012001000000000000000000000000000000CA
S1130130000000000000000000008080808040403B
S11301404030083040404040808080000000000083
S1130150000000C0F0F8FCFCFCFEFEFE7E7F7F7F0A
S11301607F7FFFFEFCF8E000FFFFFFFFFF01070FAA
S11301701F7FFFFEF8F0E080000000000000000098
S1130180808000000080000000800000808000006B
S113019000800080000000808000000080000000DB
S11301A0008080000000000000808080000000804B
S11301B080808080000080808080000000119D8A03
S11301C008040484888A9D91000000000000000057
S11301D00078FEFFFFFFEFCF00000000000000608A
S11301E0F0F0FFFFFFFFFF78FFFFFFFFFFE0E0E01D
S11301F0E0E0E0E3E7FFFFFFFFFCF8E0C000380FBA
S1130200080F3C20203F0000003F00003F01060C87
S1130210303F003F040A112001033C030100003871
S11302200F080F3C2000001E112024243D001F3124
S1130230202020311F003F04041C3300380F080F16
S11302403C20003F202020311F000000000000005F
S113025000001F3FFFFFFFFDFCF8F8F8F0FCFCFE78
S1130260FFFF7F7F1F07030001030303030303034F
S11302700303030303030303030303030160D09095
S1130280901000F0808080F00000F090909060006A
S1130290F000000000F01010F0101000F00000005A
S11302A0000000000000000000000000000000004A
S11302B0000000000000000000000000000000003A
S11302C000000000000000000000000080000000AA
S11302D00000041F3F3F3F1F0F07030303030303F3
S11302E0010000000000000000000000000000E029
S11302F0C000000000000000000000000002040430
S113030004030007000000070000070000030600C4
S113031003040404040300000700000007000000B5
S113032000000000000000000000000000000000C9
S113033000000000000000000000000000000000B9
S113034000000000000000000002263A13133A26C1
S11303500200000000000000000000000000000097
S113036000000000000000000000000206EA9241C4
S11303704192EA0602000000000000000000FE06B0
S11303803CE0E03806FE007CC6828282C67C00FE29
S1130390101010FE0000E03C223EF08000FE061823
S11303A030C0FE00FE828282C67C00E03C223EF029
S11303B0804C9A929262000000FE92927E0000FEAF
S11303C0101010FE0000E03C223EF0800202FE020B
S11303D00200000000000000000000000000000017
S11303E00000000000000000000000000001000008
S11303F000000100000000000000000000000000F8
S113040000000000000000000000000000000000E8
S113041000000000000000000000000000000000D8
S113042000000000000000000000000000000000C8
S113043000000000000000000000000000000000B8
S113044000000000000000000000000000000000A8
S11304500000000000000000000000000000000098
S1130460000000000000000011241FBECFEFD8E000
S1130470DEBFCDBF02D0B2C1C3CDCF93DF931F92F5
S1130480CDB7DEB72FEF80E792E021508040904057
S1130490E1F700C00000CE01019653D1CE010196D0
S11304A027D0CE01019604D16FEFCE01019645D03D
S11304B02FEF83EC99E0215080409040E1F700C099
S11304C000000F2EF8E6EF2EF0E0FF2EF02D07E0EF
S11304D02FE740E060E0CE0101963CD12FEF83ECA2
S11304E099E0215080409040E1F700C00000D6CF51
S11304F0389A399A3B9A3A9A0895411102C0409821
S113050001C0409A439888E0662314F4429A01C0DB
S113051042989AE19A95F1F700C0439A9AE19A9524
S1130520F1F700C04398660F815071F7089541E0D8
S1130530E4CF089540E0E1CF0895FF920F931F9315
S1130540CF93DF93EC01062F0F2EF0EBFF2EF02D4F
S11305506F2DCE01EFDF60E0CE01ECDF60E1CE0174
S1130560E9DF10E0602FCE01E2DF1F5F1038D1F722
S1130570F39488EBF812ECCFDF91CF911F910F9198
S1130580FF9008951F93CF93DF93EC01162F60EB38
S1130590640FD0DF612F62956F706061CE01CADF96
S11305A0612F6F70CE01C6DFDF91CF911F91089547
S11305B01F93CF93DF93EC01162F60E2BBDF612F13
S11305C0CE01B8DFDF91CF911F9108951F93CF9390
S11305D0DF93EC01162F61E8ADDF612FCE01AADFB6
S11305E0DF91CF911F9108951F93CF93DF93EC0177
S11305F0162F6DE89FDF612F6061CE019BDFDF91D5
S1130600CF911F9108951F93CF93DF93EC01162F81
S113061068EA90DF612FCE018DDFDF91CF911F91CA
S113062008951F93CF93DF93EC01162F63ED82DFC0
S1130630612FCE017FDFDF91CF911F9108951F932A
S1130640CF93DF93EC01162F65ED74DF612FCE019C
S113065071DFDF91CF911F9108951F93CF93DF93A3
S1130660EC01162F69ED66DF612FCE0163DFDF91A8
S1130670CF911F9108951F93CF93DF93EC01162F11
S11306806AED58DF612F6260CE0154DFDF91CF91B4
S11306901F9108951F93CF93DF93EC01162F6BEDF9
S11306A049DF612FCE0146DFDF91CF911F9108957D
S11306B0CF93DF93EC01439A41982FEF80E792E0C8
S11306C0215080409040E1F700C00000419A6EEA5A
S11306D0CE0130DF60E8CE01B2DF6FE3CE0193DFFD
S11306E060E0CE019EDF60E4CE0124DF64E0CE0151
S11306F07BDF62E0CE015CDF61EACE011BDF68ECE8
S1130700CE0118DF60E1CE01B6DF6FECCE015EDF13
S113071061EFCE01A2DF60E4CE01BCDF64EACE016A
S113072009DF66EACE0106DF6FEACE0103DF60E08F
S1130730CE0103DF40E060E0CE0124DFDF91CF9102
S11307400895CF93DF93EC01D3DECE01B1DFDF91C7
S1130750CF9108955F926F927F928F929F92AF9202
S1130760BF92CF92DF92EF92FF920F931F93CF939A
S1130770DF936C01662E742E122F0417F8F0A12C4F
S1130780B12C88248A94820E861A912C472D662DCA
S1130790C601F8DE611678F4E701CA0DDB1D562C9C
S11307A06991C601C4DE53945116D0F38FEFA81A91
S11307B0B80AA80CB91C7394071540F7DF91CF91C0
S11307C01F910F91FF90EF90DF90CF90BF90AF906B
S11307D09F908F907F906F905F900895F894FFCFD3
S9030000FC
